:020000040800F2
:10000000209102204903000811E80008DDB1000832
:1000100005DE0008052C0008B99701080000000063
:100020000000000000000000000000003F2F010859
:1000300065300008000000003D2A0008E543010883
:10004000830300088303000883030008D123010809
:100050008303000883030008830300088303000868
:100060008303000883030008830300088303000858
:100070008303000883030008830300088303000848
:100080008303000883030008830300088303000838
:100090008303000883030008830300088303000828
:1000A0008303000883030008830300088303000818
:1000B0007D44010883030008D94401088303000834
:1000C00083030008830300088303000883030008F8
:1000D0008303000895670108830300088303000871
:1000E00083030008B122010883030008830300088A
:1000F00083030008830300088303000883030008C8
:1001000083030008830300082D45010883030008CA
:10011000D553010883030008830300088303000804
:100120008303000883030008830300088303000897
:1001300083030008D94400088303000883030008F0
:100140008303000883030008830300086D2101086E
:100150008303000883030008830300088303000867
:100160008303000883030008830300088303000857
:1001700083030008830300088303000800000000D5
:100180008303000883030008830300088303000837
:100190008303000883030008830300088303000827
:1001A00083030008830300088303000800F002F8BB
:1001B00000F0B2F80AA090E8000C82448344AAF14F
:1001C0000107DA4501D100F0A7F8AFF2090EBAE84D
:1001D0000F0013F0010F18BFFB1A43F0010318477B
:1001E000BCE10300DCE103000A444FF0000C10F80E
:1001F000013B13F0070408BF10F8014B1D1108BFA5
:1002000010F8015B641E05D010F8016B641E01F844
:10021000016BF9D113F0080F1EBF10F8014BAD1C94
:100220000C1B09D16D1E58BF01F801CBFAD505E0B2
:1002300014F8016B01F8016B6D1EF9D59142D6D30C
:10024000704700000023002400250026103A28BF34
:1002500078C1FBD8520728BF30C148BF0B60704738
:100260006E2900F05C87702900F0618266292AF00F
:10027000618665292AF05E8667292AF05B866129F6
:100280002AF05A8603681B0A28BF41F080016929B9
:1002900000F09881642900F09581752900F0928121
:1002A0006F2901F01780782900F02D82E92900F0EC
:1002B000C381E42900F0C081F52900F0BD81EF2958
:1002C00001F01480F82900F02C820368DB0928BFB4
:1002D00041F08001632900F05E87732900F0638795
:1002E000E32901F08184F32901F08684002070471E
:1002F0001FB52AF01AFE01F0D1FE040000200021F3
:100300002AF0EEFA401C6060002000212AF0FEFA7C
:10031000E0601FBD10B510BD01F09BFE1146FFF758
:10032000E7FF22F0C9FF01F069FF03B4FFF7F2FF16
:1003300003BC1AF029FE000030BF72B6704762B6E7
:10034000704780F30888704711488047DFF8440001
:10035000016841F470010160BFF34F8FDFF838008E
:10036000016821F040410160BFF36F8F0B480047E7
:10037000FEE7FEE7FEE7FEE7FEE7FEE7FEE7FEE755
:10038000FEE7FEE706480749074A084B70470000AA
:100390000944010888ED00E034EF00E0AD010008F9
:1003A000208502202091022020890220208902201D
:1003B00072B6704762B67047EFF3108072B670473E
:1003C00080F31088704730BF704720BF7047B0FA85
:1003D00080F0704790FAA0F0B0FA80F0704790FA81
:1003E000A0F07047704753EA020C00F069802DE9D5
:1003F000F04B4FF00006002B1FBFB3FA83F503FA52
:1004000005F424FA05F65E4012BF1643B2FA82F5EF
:1004100002FA05F4C5F120051EBF22FA05FC44EAE4
:100420000C04203556EA044C4FEA144418BF641CEF
:100430004FF000084FF00009904271EB030C39D3E4
:10044000002919BFB1FA81F701FA07F6B0FA80F76F
:1004500000FA07F6C7F120071EBF20FA07FC46EA9C
:100460000C062037B6FBF4FCA7EB0507103F07F09E
:100470001F0BCBF120060CFA0BFB2CFA06F644BF3F
:10048000B3460026202FA4BF5E464FF0000B5BEA68
:10049000060C08BF4FF0010B19EB0B09ABFB027CFC
:1004A00048EB0608C01B06FB02CC0BFB03CC71EB30
:1004B0000C01C1E70B46024641464846BDE8F08BB9
:1004C00013B54FF000004FF00001AFF30080BDE81E
:1004D0001C4070470A46014900F06ABEB010002077
:1004E0000FB4044910B503AA029800F061FE10BCD5
:1004F0005DF814FBB01000200FB41CB5084B06AA21
:100500007B4469460090059800F023FE04460020D5
:10051000694600F031FE20461CBC5DF814FB00006B
:10052000750C000070B5044685690068C10601D5E8
:10053000302600E02026C00707D070BDD4E9012195
:1005400030469047206A401C20626D1EF6D570BD73
:1005500070B5044685690078C00707D170BDD4E93D
:10056000012120209047206A401C20626D1EF6D594
:1005700070BD70B50C460546012A05D02878800666
:1005800000D5EA69002302E0012305E05B1C9342E9
:1005900002D2E05C0028F9D1A869E618C01AA86167
:1005A000286A184428622846FFF7BCFF04E0D5E912
:1005B000012114F8010B9047B442F8D32846FFF705
:1005C000C7FF70BD2DE9F04106460024106875296B
:1005D000314615A510D000F037FD002802DA404260
:1005E00012A507E031688A0701D511A502E0490785
:1005F00004D510A5012401E000F02FFD00210A23FD
:1006000006F1240707E0B0FBF3F203FB12003030E1
:1006100078541046491C0028F5D123462A46304616
:10062000BDE8F04100F022BD000000002D000000F8
:100630002B000000200000002DE9F0418046D21D73
:1006400022F007020025D2E90002F52914A612D0F3
:10065000002A06DA0023D0EB030063EB020211A6A6
:1006600008E0D8F800108B0701D50FA602E0490773
:1006700001D50EA601251146002408F1240704E047
:1006800000F092FC30323A55641C50EA0102F7D176
:100690002B46324621464046BDE8F04100F0E6BC1C
:1006A000000000002D0000002B00000020000000D2
:1006B000F0B40D460188090502D5214C7C4402E0C6
:1006C0001F4C7C440E34002100F1240608E002F0A7
:1006D0000F071209E75D42EA03721B097754491CB0
:1006E00052EA0307F3D102780023120704D5702DD4
:1006F00006D009B1022311342246F0BC00F0B6BC8A
:1007000001231034F8E770B504460D462146106801
:1007100000F0A3FC024629462046BDE870400023B5
:10072000C6E7D21D22F00703D3E90023C0E7036820
:10073000126843F0200303600823C3610023B7E776
:10074000F8C403002DE9F05F894604464FF0000A23
:10075000DFF874B1FB44C0F820A02046E168884768
:10076000002874D0252806D0D4E901219047206ABA
:10077000401C2062F1E700265F462046E16888477A
:100780002028054607DB312D05D2781910F8200CFA
:1007900008B10643F1E7B00701D526F00406C4F816
:1007A0001CA00027C4F818A02A2D09D028461AF04A
:1007B000E4FB38B304EB8708303DC8F8185019E063
:1007C00059F8041B204604EB87029161E1688847D1
:1007D000012F054618D1E069002820DA26F020060E
:1007E0001DE0D8F8180000EB800005EB4000303821
:1007F000C8F818002046E168884705461AF0BDFB96
:100800000028EED1012F0AD02E2D08D12046E16814
:1008100088477F1C0546022F46F02006C4DBA069EE
:10082000002803DA404246F00106A061F00701D03B
:1008300026F010066C2D0BD0682D09D04C2D39D028
:100840006A2D35D0742D35D07A2D33D016E038E0AE
:10085000E1682F4620468847B842054609D16C2FEB
:1008600026D04FF48060E16806432046884705465D
:1008700004E06C2F1AD04FF4807006430DB3A5F13D
:100880004100192802D8203546F400664A46294618
:10089000204626604E46FFF7E3FC80B101280BD0CE
:1008A000F61D26F0070000F1080956E74020E4E7AE
:1008B0008020D8E70020D6E706F104094DE7284656
:1008C00052E7206ABDE8F09F88C403000FB400B56A
:1008D0008DB010A9099000910B904FF0FF300A9055
:1008E00000200C90064878440690064878446A46F2
:1008F00007900F9909A800F017FD0DB05DF814FBE3
:100900005F0A0000770A00002DE9FF5F1D464FF0E7
:10091000FF3B91464FF000085F46D5E90146A969C3
:1009200001987F1C8847296A824688470028F6D1AB
:10093000BAF1FF3F0CD0002E24F4C06419DD60062C
:1009400014D5BAF12B0F09D0BAF12D0F0ED103E057
:10095000584604B0BDE8F09F44F48064A96901984A
:100960007F1C8847761E8246002E02DDBAF1300FCA
:1009700003D0B9F1000F26D032E0A969761E0198A4
:100980007F1C44F400748847002E824605DDBAF1CE
:10099000780F06D0BAF1580F03D0B9F1000F10D07C
:1009A0001EE0B9F1000F02D0B9F1100F18D1A969FA
:1009B000761E01987F1C24F400748847824610201C
:1009C00002E0082000E00A20814609E0A96908FB4E
:1009D0000908761E01987F1C44F4007488478246FB
:1009E000002E05DD4946504600F08AFC0028EDDA6D
:1009F000E96901988847A00502D46FF00100A8E7D3
:100A0000E00725D1600613D5600502D5C8F10000C6
:100A100000E0404629680A1D2A600968220501D5C0
:100A2000087015E0220701D5088011E008600FE08A
:100A30002868011D29600068210502D580F8008022
:100A400006E0210702D5A0F8008001E0C0F8008090
:100A500038467EE72DE9FF5F4FF0000899461446BF
:100A600046469169D2E901A7DDF838B00198884778
:100A7000054659EA0B0005D009E0A1690198761CEA
:100A800088470546216A284688470028F5D1681C12
:100A900003D05FEACA7005D015E04FF0FF3004B014
:100AA000BDE8F09F2068011D2160D0F800800AE0B9
:100AB0005FEACA7001D108F8015BA169761C019850
:100AC0007F1E88470546002F1ADD681C18D0B9F133
:100AD000000F0DD0E81705EBD060421120F01F0089
:100AE00059F822102A1A012090400142E0D107E073
:100AF000BBF1000FDCD12846216A88470028D7D0F7
:100B0000E169019888470AF0010050EA0B0002D120
:100B1000002188F80010A068B84203DDBBF1000F87
:100B200003D017B16FF00100B9E73046B7E770B5F1
:100B3000064600F035FA0468054630460A220021D0
:100B400000F022FC2C6070BD70B5064600F028FA5B
:100B50000468054630460A22002100F015FC2C608E
:100B600070BD10B5431E13F8014F002CFBD105E0FA
:100B700011F8014B002C03F8014B03D0521EF7D2A1
:100B80000021197010BD30B505460B462A4613F8F2
:100B9000014B12F8010B08B1A042F8D01CB100289B
:100BA00002D06D1CF1E7284630BD40EA010310B5C4
:100BB0009B070FD1042A0DD310C808C9121F9C42ED
:100BC000F8D020BA19BA884201D9012010BD4FF0DF
:100BD000FF3010BD1AB1D30703D0521C07E000202C
:100BE00010BD10F8013B11F8014B1B1B07D110F889
:100BF000013B11F8014B1B1B01D1921EF1D118468C
:100C000010BD40EA0103024630B59B0710D14FF0FA
:100C1000013400E008C208C91D1B9D4315EAC41F2A
:100C2000F8D013F0FF0102F8011B0DD01B0AF8E702
:100C300011F8013B002B02F8013B05D011F8013BF4
:100C4000002B02F8013BF3D130BD10B5431C02E08C
:100C500010F8011B71B18107FAD14FF0013202C8BF
:100C60008C1A8C4314EAC211F9D0C01A0A0603D0B8
:100C7000C01E10BDC01A10BD0A0401D0801E10BDD8
:100C80000902FCD0401E10BD40EA010370B59B076D
:100C90002ED14FF00136042A2AD308C810C99D1B53
:100CA0009D43121F15EAC61517D0D8B2E1B2401AFB
:100CB00050EA056110D198B2A1B2401A50EA05413C
:100CC0000AD123F07F4024F07F41401A50EA0521E9
:100CD00002D1180EA0EB146070BDA342DBD018BA8D
:100CE00021BA884201D9012070BD4FF0FF3070BD9C
:100CF0000AB9002070BD10F8013B11F8014B63B137
:100D0000A3420AD1521E08D010F8013B11F8014B42
:100D10001BB1A34201D1521EEDD1181B70BD421E62
:100D200012F8013F002BFBD111F8013B002B02F818
:100D3000013BF9D17047032A40F2308010F0030CD8
:100D400000F0158011F8013BBCF1020F624498BF1E
:100D500011F801CB00F8013B38BF11F8013BA2F1BB
:100D6000040298BF00F801CB38BF00F8013B11F036
:100D7000030300F02580083AC0F0088051F8043BD6
:100D8000083A51F804CBA0E80810F5E7121D5CBF43
:100D900051F8043B40F8043BAFF30080D20724BF76
:100DA00011F8013B11F801CB48BF11F8012B24BF0A
:100DB00000F8013B00F801CB48BF00F8012B704759
:100DC00010B5203AC0F00B80B1E81850203AA0E8E6
:100DD0001850B1E81850A0E81850BFF4F5AF5FEA1A
:100DE000027C24BFB1E81850A0E8185044BF18C9CD
:100DF00018C0BDE810405FEA827C24BF51F8043B74
:100E000040F8043B08BF7047D20728BF31F8023BC7
:100E100048BF11F8012B28BF20F8023B48BF00F85B
:100E2000012B70474FF000020429C0F0128010F02F
:100E3000030C00F01B80CCF1040CBCF1020F18BFB6
:100E400000F8012BA8BF20F8022BA1EB0C0100F049
:100E50000DB85FEAC17C24BF00F8012B00F8012B1C
:100E600048BF00F8012B70474FF0000200B5134651
:100E700094469646203922BFA0E80C50A0E80C50BA
:100E8000B1F12001BFF4F7AF090728BFA0E80C506B
:100E900048BF0CC05DF804EB890028BF40F8042B64
:100EA00008BF704748BF20F8022B11F0804F18BFD1
:100EB00000F8012B704710B5044610F0030F08BF6F
:100EC00011F0030F40F015804FF0013E121FC0F2E9
:100ED0000E8051F8043BA3EB0E0C2CEA030C1CEA29
:100EE000CE1C08BF40F8043BF0D0A1F1040102F190
:100EF0000402521E08DB11F8013B002B00F8013BF5
:100F0000F7D11146FFF78EFF204610BD4FF0013C90
:100F100050F8042B51F8043B9A4221D1A2EB0C0368
:100F2000934313EACC1317D150F8042B51F8043B28
:100F30009A4215D1A2EB0C03934313EACC130BD1C5
:100F400050F8042B51F8043B9A4209D1A2EB0C0350
:100F5000934313EACC13DBD04FF00000704700BF7F
:100F6000D01A01BAB1FA81F101F0180122FA01F0A8
:100F7000CB40C1F12001DBB2C0B2C01A2CFA01F3A0
:100F8000D11A914311EAC311E6D17047014900F02B
:100F900033BA00009484022070477047704770474E
:100FA00000487047C084022030B5B0F10A024FEA11
:100FB000900E71F100034EEA817EB0EB0E0061EB02
:100FC00091014FEA101E4EEA017E10EB0E0041EB3C
:100FD00011114FEA102E4EEA016E10EB0E0041EB9C
:100FE00011214FEA104E4EEA014E10EB0E0041EB7C
:100FF0001141401841F100014FEAD00040EA417030
:101000004FEAD10110EB80054FEA810444EA907465
:1010100044EB01046D1944EB0404521BA3414FF04F
:10102000000348BF0A3200D530BD401C41F1000129
:1010300030BD10B5FFF7B4FF006810BD10B5044611
:10104000FFF7AEFF046010BD09684A0501D540B244
:101050007047C905FCD500B2704709684A0501D53B
:10106000C0B27047C905FCD580B270472DE9F04782
:101070000D4699469246044600F124080168880608
:1010800004D5E06921F01001216000E00120A842B0
:1010900001DD471B00E00027A1697A1902EB090076
:1010A000081AA0612078C00602D42046FFF73AFA59
:1010B000002608E0D4E901211AF806009047206ACA
:1010C000401C761C20624E45F4DB2078C0060AD511
:1010D0002046FFF727FA06E0D4E9012130209047A7
:1010E000206A401C2062381EA7F10107F4DC07E0EB
:1010F000D4E9012118F805009047206A401C2062BD
:10110000281EA5F10105F3DC2046FFF721FA20781F
:10111000000602D50220BDE8F0870120FBE7116838
:101120000268006A530501D508700AE0D30501D5AD
:10113000088006E0130603D5C217C1E9000200E0EB
:10114000086001207047000001694A1C02610878AC
:10115000704700B58FB0CDE90131002105910549F7
:101160007944CDE9031011466846FFF7EBFA0FB05A
:1011700000BD0000E5FFFFFF0A6802F8010B0A60EE
:10118000704710B5436913B1AFF3008001E0FFF77A
:10119000F0F9012010BD127800F124010A7000223C
:1011A0004A700122EDE711684FF0FF32E9E70000D5
:1011B000074B70B50D467B44FFF7CBFF044628462E
:1011C00000F023FF10B14FF0FF3070BD204670BD1E
:1011D00013F401002DE9FF5F15468A460446DFF847
:1011E000AC80F8440027D8E900103E46CDE9001055
:1011F00010E03AF816106A4602A800F00AFF411CF7
:1012000007D02178890603D5E269391891420DD8B3
:101210000744761C2078800602D5E069B84205DDD7
:10122000AE42E6DB3AF816000028E2D1A069C01B06
:10123000A0612046FFF776F9D8E90010CDE900104B
:10124000002017E03AF818106A4602A800F0E1FE04
:10125000B0F1FF3F81460BD000250DF1080B05E0F2
:10126000D4E901211BF8050090476D1C4D45F7D3CB
:1012700008F10100B0428046E4DB206A3844206275
:101280002046FFF765F9BDE8FF9F00000EBA030096
:1012900030B4002100F1240408E002F00705D20870
:1012A000303542EA4372DB086554491C52EA0305B3
:1012B000F3D10468002310A2250708D504F0200408
:1012C0000C4304D0C46901230CA2641EC46130BC69
:1012D000FFF7CCBE10B5044621461068FFF7BDFEEF
:1012E00002462046BDE810400023D1E7D21D22F07F
:1012F0000701D1E90023CBE7000000003000000027
:101300003A2800D2303820F02002412A01D3A2F13D
:101310003700884201D34FF0FF3070470268114414
:101320001378016018467047D160054979445161CE
:1013300004497944116200211161114600F060BC3A
:10134000EDFFFFFF7F010000426842B1016811F824
:10135000013B23B1521EC0E900121846704701211B
:10136000C160881E704742685AB1C368016843B9BA
:1013700083688B4205D0491E521CC0E90012002030
:1013800070474FF0FF3070472DE9F04791460F4608
:1013900080460446002614F8015B2DB100F082F867
:1013A0000068405DC007F6D12B2D02D02D2D18D03E
:1013B000641E4A463946204600F0D8FD27B13968F8
:1013C000A14201D1C7F800804FF0020471050BD58E
:1013D0004042002803DDFFF7E3FD0460A007BDE8FD
:1013E000F08746F48066E4E70028F8DAFFF7D8FDD6
:1013F00004606FF00040F2E770B50C460168002011
:101400004A1C34D040F2B5553C23B1FBF3F203FB48
:1014100012112160B2FBF3F103FB11221823626069
:10142000B1FBF3F203FB1211A16046F2E0310A4472
:101430000721B2FBF1F301FB1321B2FBF5F305FB2E
:101440001322A1619900B2F5B77F06D3AD10521EE9
:10145000B2FBF5F3194405FB13220F4BE261616106
:1014600089077B440CD03B2A0AD3521C08E02C216C
:101470002046FFF7F9FC0120E0600AE0521A401C08
:10148000195C9142FAD9521CC4E903204FF0FF3095
:101490002062204670BD0000BCB7030000487047C2
:1014A000C084022010B500F0F9FD001D10BD00BF82
:1014B0003194020010B50446FFF7F4FF0068005DA8
:1014C00000F0010010BD70472DE9FF4F0C461E468D
:1014D0004FF0FF378BB0D2E90001DDF860800A9051
:1014E0008A46C1F30A5505B93D46002108464FF02A
:1014F0000000BAF1000F00F4400005DA00EB8000B4
:101500004FF4400101EA50004FEA9059B9F1010F40
:1015100000DDB9460A9850EA4A000ED044F6105051
:10152000A5F2FF3545432F14B8F1000F1ED07542C8
:10153000291E1EDDC9F100021CE0B8F1010F4FF0B9
:10154000000001D0302103E0F24305E02154401CAB
:10155000B042FBDB30460022002121540B99C1F838
:101560000880C1E900200FB0BDE8F08FBD1B6D1CE5
:10157000DEE74A4600DA694206A800F0D3FD06AB72
:1015800093E8070003AB83E8070050460A9900F090
:101590003BFE8DE80700A0F500501F38009003982F
:1015A000002D09DD42F21F014A46084403A90390B9
:1015B000684601F09AF808E0A0F500504A461F3846
:1015C00003A90390684601F0A4F88DE80700000421
:1015D000000C03D04FF0FF30410800E01046B8F196
:1015E000000F03D00022009215461EE0751E05D4A0
:1015F000FFF7DAFC303262556D1EF9D5B346012291
:10160000084302D000227F1C04E02078302801D15A
:1016100000227F1E002A099786D01DE0112D07DACF
:10162000FFF7C2FC303262556D1C50EA0102F5D161
:10163000084302D00098C8B10EE00021681E05E002
:10164000235C625C63542254401E491C8142F7DBD8
:10165000AB46A81B401E0990002004F80B000B9815
:10166000099AC0F80880C0E9002B7CE711264FF0EA
:10167000000859E72DE9F04F88460446D21D22F0B4
:10168000070191B0D1E90001CDE90A0119F020FC70
:1016900002460B98C00F01D02D2007E0206881077B
:1016A00001D52B2002E0202101EAC000032A099085
:1016B00001D0072A05DB03464146204600F0F2FC34
:1016C00009E12078800601D5E06900E00620B8F144
:1016D000650F814606D0B8F1660F18D0B8F1670FD4
:1016E00070D131E00020B9F1110F009001DB11231E
:1016F00001E009F101030AAA01A90CA8FFF7E4FE21
:10170000DDE90C70002609F10105834647E0012060
:101710004B4600904FF000470AAA01A90CA8FFF71A
:10172000D3FEDDE90DB00C995D46002610B909F134
:1017300001000D18B9EB050003D4C0F1FF3609F123
:101740000105A5EB09002BE0B9F1010F01DA4FF01B
:1017500001090020B9F1110F0090484601DD112365
:1017600000E003460AAA01A90CA8FFF7ADFEDDE9D7
:101770000C704D4600268346207800070AD4AB45FE
:1017800000DA5D4601A8012D04DD411911F8011CA4
:10179000302907D04F4502DA17F1040F04DA01208F
:1017A00082460FE06D1EEEE7002F02DCED1B3E448B
:1017B00003E0781CA84200DD7D1CB81B00F1010A83
:1017C0004FF000472078000703D4AA4501DB4FF013
:1017D000FF3A0021B7F1004F0DF143088DF8431097
:1017E00022D002202B23002F01DA7F422D234FF03D
:1017F0000A0C011EA0F1010000DC47B197FBFCF1CF
:101800000CFB11720F46303208F8012DF1E7A8F1F8
:10181000010003702188090501D5452100E06521FB
:10182000A0F1010800F8011C09980FA9A1EB080715
:10183000FF1D00B10120411901EBEA70A169384494
:10184000081A401EA0612078C00602D42046FEF788
:1018500069FE099828B1D4E901219047206A401C0B
:1018600020622078C00622D52046FEF75BFE1EE0EF
:10187000002E04DBB34502DD01A8805D00E03020CE
:10188000D4E901219047206A401C2062761CAAF10D
:1018900001005FEA000A0AD100F000FCC06801689C
:1018A000405CD4E901219047206A401C2062281E38
:1018B000A5F10105DCDC07E0D4E9012118F8010BF2
:1018C0009047206A401C2062381EA7F10107F3DC14
:1018D0002046FEF73DFE022011B045E62DE9F04F0F
:1018E00004460D46D21D22F0070089B0D0E90092CF
:1018F00048461746394619F0EBFA0246F80F01D070
:101900002D2307E02068810701D52B2302E0202149
:1019100001EAC0038DF820300BB1012000E0002067
:10192000032A824601D0072A04DB2946204600F01C
:10193000B9FB3BE12078800601D40D2500E0E56984
:10194000C7F30A560D2D49DA00214FEA175B084606
:101950004FF00000002F00F4400007DA00EB800099
:1019600000EBD0714FF4400000EA610081150129BD
:1019700001DD4FF0FF3100224FEA850CBCF1180F5A
:1019800006D31346ACF118004FF08052C24003E07A
:101990004FF4801323FA0CF30CF10C0CBCF1200F64
:1019A00004D3ACF1200C09FA0CF001E007FA0CF0BA
:1019B00000294FF0004801DD18B90FE00ED1404575
:1019C0000CD319EB02095F4121B9404502D19F4375
:1019D00029EA0209BBEB175F00D0761C20880005BE
:1019E00002D57A48784402E078487844193808AA41
:1019F000302302F80A30037C0AF10101002E0AF1BB
:101A0000020A53546A4602DC4FF0300101E04FF005
:101A100031014FF001088DF8001002D0A6F2FF3618
:101A200003E059EA470100D0694E002D02DC21781D
:101A3000090704D54FF002082E218DF80110C44685
:101A400000210BE0C7F303433F01C35C491C6D1E3B
:101A500002F80830052908F1010801DA002DF1DC4F
:101A600000210CE000EB1973491C1B786D1E08293E
:101A700002F808304FEA091908F1010801DA002DCF
:101A8000F0DC2178890602D514E0A8F10108E045D0
:101A900005DD02EB080111F8011C3029F5D0B8F181
:101AA000000F07DD02EB080111F8011C2E2901D1FE
:101AB000A8F10108002D05DD3E2102F808106D1E79
:101AC00008F10108407C002E02F8080008F1010826
:101AD00004DA2D20764202F8080002E02B2002F8FA
:101AE00008000A214FF47A739E4208F101080ADBCC
:101AF00096FBF3F000F1300703FB106602F8087064
:101B000008F1010801E0642E0BDB642796FBF7F077
:101B100000F1300307FB106602F8083008F10108F5
:101B200001E00A2E06DB96FBF1F0303002F80800E7
:101B300008F1010896FBF1F001FB1060303002F86B
:101B40000800A16908F1010808EB050202EB0A0090
:101B5000081AA0612078C00602D42046FEF7E2FCF5
:101B6000216A08AE01EB0A00206204E0D4E90121F9
:101B700016F8010B9047BAF1010AF7D22078C00697
:101B800002D52046FEF7CEFC6E4609E016F8010BA2
:101B90003E280FD0D4E901219047206A401C2062E2
:101BA000B8F10108F2D22046FEF7D2FC09B00220BB
:101BB000BDE8F08F206A2844206203E0D4E90121C7
:101BC000302090476D1EEBD3F8E7000027B20300EA
:101BD00002FCFFFF10B5436913B1AFF3008001E0D1
:101BE000FFF7F8FA012010BD128800F12401828469
:101BF0000022C2840122EDE711684FF0FF32E9E7CD
:101C00002DE9F34F4FF0000A0C4656468DB00120E7
:101C10000C9001F10C000B9062690B980121904728
:101C200005002DD0252D2CD0216A8847C0B16269CE
:101C30000B9801219047216A88470028F7D16269F3
:101C4000411E0B98904700E0761CA1690D988847CB
:101C5000216A88470028F7D1E1690D988847DBE7BA
:101C6000A1690D988847A842074601D1761CD3E7A1
:101C7000E1690D9888477F1C02D1BAF1000F6FD03F
:101C800068E162690B9800273D46394690472A284B
:101C900004D162690B98012190470125DFF8C882C1
:101CA00062690B9801219047A0F130010A290AD2FC
:101CB0004745E5DC07EB870100EB4107303FDFD408
:101CC00045F01005ECE7E90601D46FF000476C28F9
:101CD0000AD04C2814D0682815D06A280DD0742852
:101CE0001CD07A281AD01DE062690B980121904718
:101CF0006C2802D045F0040514E045F002050DE023
:101D000045F020050AE062690B9801219047682898
:101D100002D045F0080505E045F4006562690B98BE
:101D200001219047C4E9015765283DD019DC5828A6
:101D300077D00CDC452837D004DC252826D0412874
:101D40009ED131E046282FD0472899D12CE05B283E
:101D50007DD0612828D0632879D0642823D157E02A
:101D6000F3E06F2845D008DC66281DD067281BD01B
:101D7000692821D06E2816D127E0702842D0732818
:101D800065D0752844D078280DD14AE0A1690D9816
:101D90008847252805463FF469AFE1690D988847D3
:101DA0006D1C3FF46AAFD5E00D9923466A466FF08B
:101DB0000100AFF30080C2E045F0400023464FF041
:101DC00000026060A80733D43BE02068011D216059
:101DD0000068290501D506701EE7290701D5068090
:101DE0001AE7A90703D5F117C0E9006114E70660F7
:101DF00012E745F0400023464FF008026060A80754
:101E000016D41EE040F60E0125EA0100606016E0DF
:101E100045F0400023464FF00A026060A80707D44F
:101E20000FE045F040006060A80708D52346102267
:101E30000D996FF00100AFF3008080E007E0102201
:101E400023460D996FF00100FEF75EFD77E04FF03D
:101E5000000963284F46C8464B46CB4602D05B2854
:101E600006D038E0E80601D40120A060012732E066
:101E70006269D4F80CB00B98012190475E2807D115
:101E80004FF0010949466269D4F80CB00B989047AD
:101E9000216939B900210B4603AA42F82130491CB7
:101EA0000829FADBD8B3216949B308F1010862694E
:101EB0000B98012190475D28F4D1B9F1000F09D0AA
:101EC000002003A951F82020D24341F82020401CD3
:101ED0000828F7DB03AB2069002820794FEA40701F
:101EE0001ED05B462246CDF80080CDE901970D99C2
:101EF00000286FF0010020DAAFF300801FE0C11767
:101F000000EBD16203A9531122F01F0201EB830100
:101F1000821A0B680120904003430B60C7E719E069
:101F20000D99224600286FF00100009702DAAFF306
:101F3000008004E0FEF78EFD01E0AFF30080002892
:101F40000ADA401C06D10C9820B14FF0FF300FB0D8
:101F5000BDE8F08F5046FAE7E90701D10AF1010A1E
:101F6000064400200C9057E6CCCCCC0C2DE9F05F59
:101F7000824615468B4600270AF10104B9460078CF
:101F8000302801D09DB113E014F8010B0127782807
:101F900003D0582801D045B10AE00DB1102D07D16A
:101FA000002714F8010B102502E0082500E00A259F
:101FB0000026B0460EE005FB080005FB06F10127F0
:101FC0001FFA80F801EB1046B6F5803F00D3B94602
:101FD00014F8010B2946FFF793F90028EBDABBF15F
:101FE000000F05D00FB1641E00E05446CBF800404E
:101FF000B9F1000F06D0FEF7D3FF02210160C81E21
:10200000BDE8F09F48EA0640FAE7007B00F0800058
:10201000704770B516460C460546FFF743FA03684D
:1020200093F80101012806D0FF2C0FD8185D68B184
:1020300001202C7070BDD3F80701324621460344BD
:102040002846BDE8704003F2071318474FF0FF30F1
:1020500070BD7546FFF722FAAE4605006946534645
:1020600020F00700854618B020B5FEF78BF9BDE8D3
:1020700020404FF000064FF000074FF000084FF0EF
:10208000000B21F00701AC46ACE8C009ACE8C00980
:10209000ACE8C009ACE8C0098D46704700487047FD
:1020A000E08402202DE9F0411F4604460326016822
:1020B000072A01F4006004DB08B116A505E016A5A7
:1020C00003E008B115A500E015A521F0100020607F
:1020D000A069C01EA0610FB1401EA0612046FEF79E
:1020E00021FA4FB1D4E9012138469047206A401CBB
:1020F0002062C01C206206E0206AFAE7D4E90121D0
:1021000015F8010B9047761EF8D22046FEF720FA0C
:10211000BDE8F0814E414E006E616E00494E4600B2
:10212000696E66002DE9F047814616468AB032484E
:1021300078440DC88DE80D002F487844801C03AC0E
:102140000DC884E80D0041F69B303722014491FB15
:10215000F2F0A0F1800502FB10141B3C02D5644292
:10216000012000E00020DFF890A080460027FA441C
:10217000AAF1BA0A0DE0E00709D03246684607EB3B
:1021800047010AEB810100F0C4FA8DE807006410F2
:102190007F1C002CEFD1184F7F44A83F18E0E807C0
:1021A00014D007EB04100DF1180A90E80E008AE82D
:1021B0000E00C068F04201D198190890324606A975
:1021C00003A800F0A6FA03AB83E807006D10641CB7
:1021D000002DE4D132466946B8F1000F03A802D0C1
:1021E00000F083FA01E000F094FAC9E90001C9F8AF
:1021F00008200AB0BDE8F08778AB03000446AFF3CF
:1022000000802046FEF791F85FEA400C08BF91F08D
:10221000000F4FEA8C234FEAC12243EA51514FEAA3
:102220001C5018BF00F5F0404FEA300018BF41F0D5
:1022300000415FEA6C5C00F02980BCF1FF3F08BF01
:1022400040F080407047130C06BF12044FF0100C92
:102250004FF0000C130E04BF12020CF1080C130F08
:1022600004BF12010CF1040C930F04BF92000CF197
:10227000020CD30F04BF52000CF1010C11464FF0B9
:102280000002A0F11F00A0EB0C00704711F0004FFE
:1022900008BF704731F000413FF4D5AF0B0C06BFCB
:1022A00009044FF0100C4FF0000C0B0E04BF090294
:1022B0000CF1080C0B0F04BF09010CF1040C8B0F7F
:1022C00004BF89000CF1020CCB0F04BF49000CF1D4
:1022D000010CCCF12003A0EB0C0022FA03F302FA6C
:1022E0000CF241EA030100F10100704720F07F4C3D
:1022F00080EA030023F07F47ACEB070303F57C5330
:1023000000F0004003F1FF032DE980494FEA154B2F
:1023100009B44FEA144325EA0B4E24EA03480FF2AE
:10232000042606EB132749083E785FEA320203FBD6
:102330000667C7F5000707FB06F64FEA54374FEA72
:10234000D64606F1020607FB066CCCF1005C4FEAAC
:102350001C472CEA074C07FB06F40CFB06F504EBC4
:1023600015464FEA961634BF00204FF000404FEA62
:10237000D13706FB07FC4FEA1C4C0CFB0BF7D21BBA
:1023800003FB0CF761EB07010CFB0EF7B0EB07400A
:1023900072EB17420CFB08F734BFA2EB0742B2EB1B
:1023A000074261EB17414FEA0C444FEA910706FBE5
:1023B00007FC4FEA1C4C0CFB0BF7B0EBC74072EB71
:1023C000573203FB0CF734BFA2EBC742B2EBC74254
:1023D00061EB57310CFB0EF7B0EBC70072EB577295
:1023E0000CFB08F734BFA2EBC702B2EBC70261EBEC
:1023F0005771039F4FEA816141EA921104EBCC04CB
:102400004FEAD1374FEA826206FB07FC42EA90129C
:102410004FEA80604FEA1C4C0CFB0BF7D21B03FB0E
:102420000CF761EB07010CFB0EF7B0EB074072EB0A
:1024300017420CFB08F734BFA2EB0742B2EB07428E
:1024400061EB17414FEA8C554FEA910704EB9C244E
:1024500006FB07FC4FEA1C4C0CFB0BF7B0EBC7402C
:1024600072EB573203FB0CF734BFA2EBC742B2EB5F
:10247000C74261EB57310CFB0EF7B0EBC70072EBB4
:1024800057720CFB08F734BFA2EBC702B2EBC702CE
:1024900061EB577115EB4C254FEA816141EA9211CE
:1024A0004FEA82624FEAD13742EA901206FB07FCFC
:1024B00044F100044FEA80604FEA1C4C0CFB0BF720
:1024C000D21B03FB0CF761EB07010CFB0EF7B0EB23
:1024D000074072EB17420CFB08F734BFA2EB074230
:1024E000B2EB074261EB174115EB1C154FEA813146
:1024F00041EA92414FEA823242EA90424FEA80300A
:102500004FEA0C7644F1000448EA03434EEA0B48D4
:102510004FF0000EB2EB080C71EB030724BF6246CC
:1025200039464EEB0E0E4FF0000B00185241494158
:102530004BEB0B0BB2EB080C71EB03077BF1000BC1
:1025400024BF624639464EEB0E0E4FF0000B0018CA
:10255000524149414BEB0B0BB2EB080C71EB0307FB
:102560007BF1000B24BF624639464EEB0E0E51EA5A
:10257000020718BF46F0010616EB0E7655F1000271
:1025800054F1000103D5BDE88901BDE80088BDE82C
:102590008901B619BDE80048524141EB0101A3F1A0
:1025A0000103704780807F7E7D7C7B7A79787776A7
:1025B00076757473727171706F6E6E6D6C6C6B6A20
:1025C0006A696868676666656464636362616160BE
:1025D000605F5F5E5E5D5D5C5C5B5B5A5A5959583B
:1025E00058575756565555555454535352525251A5
:1025F000515050504F4F4F4E4E4D4D4D4C4C4C4BFB
:102600004B4B4A4A4A494949484848474747474641
:10261000464645454544444444434343434242427D
:1026200042414141002B26D4770021D01CB54FEA0E
:10263000370703B44FF010004FF010014FF00000C7
:102640000FBC0BF1010BBDE81040BBF1010F08BF3F
:102650005FEA170722BF12F1010211F101014FF0E9
:10266000004143F1000300F0004043EA00007047DE
:10267000F9D35708DAE746EA064613F1400F4FEA66
:1026800016461FDD13F1200FDFBF16430A46002157
:1026900020335B42C8D0C3F1200746EA064602FA5F
:1026A00007F74FEA164646EA0706C3F1200722FA63
:1026B00003F201FA07F721FA03F14FF0000342EAAF
:1026C0000702B1E746EA020646EA06464FEA164620
:1026D00046EA0106BCBF46EA0646360C4FF0000348
:1026E0004FF000024FF000019EE72DE9C0489346ED
:1026F00030B491E8380007C831EA400C48BF34EAEA
:10270000430C03D5FFF7F2FDFFF78CFFF0BCBDE8EB
:1027100000882DE9C048934630B491E8380007C8D6
:1027200010F0804F08BF13F0804F03D100F005F880
:10273000FFF778FFF0BCBDE8008820F07F4780EA13
:10274000030023F07F4C07EB0C03A3F57C5300F050
:102750000040A3F1FE0392F0000F00F0B38095F06B
:10276000000F00F077802DE901494FEA11404FEA50
:10277000144621EA004800FB06FC24EA064708FB51
:1027800006F607FB08F800FB07F718EB06484CEBCA
:10279000164C4FEA124B18EB07484FEA15464CEB24
:1027A000174022EA0B4E0BFB06FC25EA06470EFB00
:1027B00006F607FB0EFE0BFB07F71EEB064E4CEB77
:1027C000164C4FF000061EEB074E4CEB174B18EB68
:1027D0000B0840F1000018EB0E0B58EB000840F11D
:1027E00000008F1A4FF000013CBFC943661B14BFA5
:1027F000B5EB040C00213CBFC943F61B4FEA17445C
:102800004EEA8E0E27EA04454FEA1C4704FB076296
:102810002CEA074C05FB07F70CFB05F604FB0CFC48
:1028200016EB074642EB174216EB0C4642EB1C42F6
:102830001BEB060658EB0202414146EA9E0601D513
:10284000BDE80189B619524141EB0101A3F1010331
:10285000BDE801894FEA14454FEA114724EA0546CD
:1028600021EA074C05FB07F406FB07F70CFB06F112
:1028700005FB0CFC11EB074144EB17444FEA1247F0
:1028800011EB0C4144EB1C4422EA074C05FB07F218
:1028900006FB07F70CFB06F605FB0CFC16EB0746E0
:1028A00042EB174216EB0C4642EB1C456A1854F1FA
:1028B000000148BF7047B619524141EB0101A3F135
:1028C0000103704795F0000F37D04FEA11424FEAED
:1028D000144721EA024624EA074C02FB07F106FBF3
:1028E00007F70CFB06F402FB0CFC14EB074441EB6E
:1028F00017414FEA154714EB0C4441EB1C4125EA04
:10290000074C02FB07F506FB07F70CFB06F602FB7C
:102910000CFC16EB074645EB174516EB0C4645EB52
:102920001C42121951F1000148BF7047B6195241BB
:1029300041EB0101A3F1010370474FEA14454FEA4F
:10294000114724EA054621EA074C05FB07F106FB7F
:1029500007F70CFB06F24FF0000605FB0CFC12EB30
:10296000074241EB174112EB0C4251EB1C4148BFAF
:102970007047921841EB0101A3F101037047000079
:10298000EFF3098141B1F1EE101A40F8041D20ED7A
:10299000200A3E490A6810607047B0EC200A02C85D
:1029A000E1EE101A3A490A681060704772B64EF6A6
:1029B0002250CEF2000040F2FF01C0F2000101708F
:1029C0004FF0000080F309880EF030F841F24860C3
:1029D000C2F20000016881F3088841F2CE50C2F2D1
:1029E000000041F2CF51C2F200010A78027041F2B8
:1029F0004065C2F2000541F24461C2F200010A687A
:102A00002A60106880F30988EFF3148040F0020018
:102A100080F31488BFF36F8FBDE8F00F0FBCBDE8E3
:102A2000005006BC62B608471A484FF0805101605A
:102A3000704718484FF080510160704772B6EFF34D
:102A4000098020E9F00F41F24065C2F200052E68CE
:102A5000306074460DF0EAFF41F2CE50C2F2000041
:102A600041F2CF51C2F200010A78027041F2446192
:102A7000C2F200010A682A6044F0F40E1068B0E85F
:102A8000F00F80F3098862B67047000040160020FE
:102A90004416002004ED00E04A4910B5D1F80423A3
:102AA00022F44032C1F80423D1F8042343681A43C6
:102AB000C1F8042301684A6822F480724A60016800
:102AC0004A68036942EA03224A6001684A6822F0C0
:102AD00040724A6001684A6883681A434A60016824
:102AE0008A6822F400628A6001688A68C3681A43AF
:102AF0008A60C16A6FF07062D14201688A6822F010
:102B000070628A6001688A680CD0C36A1A438A605E
:102B100001688A6822F040528A6001688A68036B03
:102B20001A4301E022F040528A6001688A6822F06C
:102B300002028A6001688A68836942EA43028A6005
:102B4000416A002901684A6815D042F400624A606F
:102B500001684A6822F460424A6001684B684FF499
:102B60006044826A94FAA4F4B4FA84F4521EA24037
:102B700013434B6002E022F400624A600168CA6AB3
:102B800022F47002CA620168CA6A038C0E4C04EB1C
:102B900003531A43CA6201688A6822F400728A6089
:102BA00001688A68C36942EA43228A6001688A68C8
:102BB00022F480628A6001688A68406942EA802063
:102BC000886010BD002001400000F0FF0B480A495A
:102BD00001604FF48031416000218160C16001617A
:102BE000416101228161C0E90821054AC0E90A1258
:102BF0000163C16105F075B900200140846E0220B7
:102C00000100000FFEE70000054910B500204860F4
:102C100000F0A6F800F006F8BDE8104000F086B815
:102C2000681500202DE9F041104F002635463E8002
:102C30007E80BE60FE607E61BE613E61FDF7BCFBD2
:102C4000804600247E6100F049F800F057F878696A
:102C5000641C24040544240CF4D0C7E904564046FF
:102C6000BE61BDE8F041FDF7ABBB00006815002078
:102C700003490969884201D9401A7047002070470A
:102C80006815002010B5FDF797FB04494C69FDF766
:102C900097FB2046BDE81040FFF7EABF681500200B
:102CA00010B5FFF7EFFF0446FDF786FB034A00214E
:102CB0005161FDF785FB204610BD0000681500201E
:102CC00010B5FDF779FB04498C69FDF779FB2046C7
:102CD000BDE81040FFF7CCBF6815002010B5064CCA
:102CE0002088401C2080608810B900F051F8A06056
:102CF0006088401C608010BD6815002010B50A4C2B
:102D00006088401E0004000C60800CD100F040F888
:102D1000E060A168401A6169814200D26061A169E6
:102D2000814200D2A06110BD6815002010B5FDF7EA
:102D300043FB0446FFF7D2FF102105480BF063F870
:102D4000FFF7DCFF2046BDE81040FDF739BB00006F
:102D5000E86E0220014948607047000068150020B5
:102D600010B506F011FB08490A6842F080720A604B
:102D7000064900224A600A6842F001020A60BDE882
:102D80001040FFF7E7BF0000FCED00E0001000E09E
:102D90000148406870470000001000E070B50E4C1C
:102DA0000025C4F898520D48016821F0C001016067
:102DB000016841F0400101600948C0F88C520220CE
:102DC00004F5267418F00AFE01202060022018F095
:102DD00005FE256070BD00000080434200200240D7
:102DE00000004442154810B5016886B041F08001EA
:102DF0000160016801F080010591016841F4807172
:102E000001600068012400F4807005904020CDE945
:102E100000040320CDE902406946094805F08CFC16
:102E2000082000906946074805F086FC0648C0F86F
:102E30008C420648C0F8984206B010BD30380240B7
:102E4000001C024000200240000044420080434237
:102E500070B50E4C0026C4F898620D48016821F048
:102E6000C0010160016841F040010160094801258D
:102E7000C0F88C52022004F5267418F0AFFD2560CE
:102E8000022018F0ABFD266070BD000000804342B8
:102E900000200240000044422DE9F04782461948D4
:102EA0000024016821F0C0010160016801601E205A
:102EB00018F094FD0025144EDFF850902F464FF087
:102EC0000108C6F89872022018F088FDC6F89882AA
:102ED0006006040ED9F80C0208B1641CE4B20220AA
:102EE00018F07CFD6D1CEDB2082DEAD3BAF1000F8D
:102EF00004D0FFF753FF2046BDE8F087FFF7A8FF97
:102F0000F9E70000002002400080434200004442F4
:102F10002DE9F04705461548016821F0C001016020
:102F2000016841F040010160114E0027C6F8987217
:102F3000DFF840803C464FF00109E909C8F88C12DF
:102F40006806050E022018F049FDC6F89892022086
:102F500018F044FDC6F89872022018F03FFD641C7A
:102F6000E4B2082CE9D3BDE8F0870000002002405D
:102F7000008043420000444270B50F48016821F0D0
:102F8000C0010160016841F0400101600B4E012069
:102F9000C6F88C020A4DC5F898021E2005F5267564
:102FA00006F5237618F01AFD00243460022018F08C
:102FB00015FD2C6070BD000000200240000044425E
:102FC0000080434270B50F48016821F0C0010160E4
:102FD000016841F0400101600B4E0020C6F89802E4
:102FE0000A4DC5F88C021E2005F5237506F52676D8
:102FF00018F0F4FC01243460022018F0EFFC2C607F
:1030000070BD0000002002400080434200004442A6
:1030100070B511480024016821F0C0010160016809
:1030200001600E4D0120C5F88C020D4EC6F89802C5
:1030300007E0641CE4B2FA2C03D9FFF7C3FF0120B8
:1030400070BD022018F0CAFCD5F80C020028F0D19F
:10305000C6F8980270BD0000002002400000444203
:103060000080434270470000F0B56D4D07460024D4
:1030700028688BB0264690F84C11002937D0D0F83C
:1030800050010A900AA8FDF781FF0446806900B943
:10309000072094E80E00CDE902100833CDE9003294
:1030A000D4E9033261695FA06439521C18F02AFC2C
:1030B000A06900B90720C3B2207C227B401CC1B2AA
:1030C000207D6438C0B20FF05BF9207A2278083096
:1030D0002179C0B200230FF065F945F250020021BA
:1030E0005B4806F065FB2868012480F84C610022EB
:1030F00004A9574806F0D8FB002209A9544806F055
:10310000B1FB28689DF82720012F80F8F0209DF85A
:10311000251080F8F1109DF8261080F8F2109DF827
:10312000241080F8F3109DF8101080F8F4109DF82A
:10313000111080F8F5109DF8121080F8F61001D0EB
:10314000002C29D043A1F730FDF7D6F9286844A117
:1031500090F8F23090F8F12000F20110FDF7CCF970
:10316000286890F8F310082916D2DFE801F015045A
:1031700006080A0C0E103EA10AE03FA108E040A19B
:1031800006E041A104E042A102E043A100E044A125
:1031900000F20B10FDF7B0F90EF0EEFF01462868C3
:1031A00090F8552112B1012A06D00CE090F8463172
:1031B0008B4205D823B106E090F846318B42F9D214
:1031C00080F8461101243849D1F80C32012B00D186
:1031D0001AB1D1F80C1221B108E0012180F8551183
:1031E00003E0012A02D180F8556101242F4DA9780E
:1031F00009B96A7802B101222D4BDE78B24205D0BE
:1032000009B9697801B10121D970012490F8DC0174
:103210001979884201D0187101240BB02046F0BD05
:1032200000000020536574202752544327207469FE
:103230006D653A25642D25642D25642025643A2585
:10324000643A25642020256420200D0A0000000037
:10325000C86E0220323025303264C4EA000000001B
:1032600025303264D4C225303264C8D50000000055
:10327000D0C7C6DAD2BB0000D0C7C6DAB6FE00009F
:10328000D0C7C6DAC8FD0000D0C7C6DACBC400007C
:10329000D0C7C6DACEE50000D0C7C6DAC1F9000053
:1032A000D0C7C6DAC8D500000080434234000020F1
:1032B000780000202DED048B90B04FF000084446BC
:1032C000CDF834801C2103A8CDF83880FDF7CCFD63
:1032D000FC4E0A940B9430680125002280F87D5141
:1032E0000CAB114610460DF0E1F9F7A018F00AFBFF
:1032F0000CA8002300901A461946FC480CF0B0FDBB
:10330000FB4C4FF4F07ACDF800A00022A7694FF4EF
:1033100048731146F748B84700233168E7691A46F1
:10332000F5482031B847226A0021F4489047626985
:103330000121F348904762690121F2489047626990
:103340000121F148904762690121F0489047626984
:103350000121EF48904762690121EE4890473068AB
:103360000522636B90F847110020984730680CAA3B
:10337000002180F89451DD480CF020FEB1460CA8E5
:10338000CDE9008000223223114610460DF0C8FB23
:10339000D9F800004E4690F86E1119B990F86F01F7
:1033A00000286FD00CA8002300901A461946CF4879
:1033B0000CF056FDD8480178012902D0416901205E
:1033C0008847306890F87D1108291BD2DFE801F0AA
:1033D0001A041B415B81A7B780F88911062100916F
:1033E000B0F87421B0F87211A76A0423CB48B8472B
:1033F000002807D03168401C81F87D01C1F8808128
:1034000081F87C5105E180F88911B0F87421B0F899
:103410007211676A0023C248B84758B13068FF216B
:10342000C0F88C1180F8885180F87D51C0F88081F7
:1034300080F87C51092000903068A76A0423B0F816
:103440007421B0F87211B748B847411E082975D9E0
:10345000DFE080F88911B0F87421B0F87211676A62
:103460000023AF48B8470028CCD03068FF21C0F80F
:103470008C1180F8885180F87D51C0F8808180F8E7
:103480007C51C6E0CFE080F88911B0F87421B0F823
:103490007211676A0023A248B84758B13068FF210B
:1034A000C0F88C1180F8885180F87D51C0F8808177
:1034B00080F87C51082000903068A76A0323B0F898
:1034C0007421B0F872119848B847411E072935D9C0
:1034D0009FE080F88911B0F87421B0F87211676A22
:1034E00000238F48B84758B13068FF21C0F88C11CD
:1034F00080F8885180F87D51C0F8808180F87C5137
:10350000032000903068A76A0423B0F87421B0F853
:1035100072118648B847411E022975D979E080F8B2
:103520007D51C0F8808180F87C51CDF800A0002248
:103530004FF4487311466F48A76956E064E080F87D
:103540008911B0F87421B0F87211676A00237448C9
:10355000B84758B13068FF21C0F88C1180F8885105
:1035600080F87D51C0F8808180F87C513068D0F8B7
:103570008011012904D002292DD0032949D136E038
:1035800004210091B0F87421B0F87211A76A0423E5
:103590006748B847411E032904D83168C1F88C0137
:1035A00081F888513068676A0323B0F87421B0F855
:1035B00072116048B84760B330680521C0F88C11BB
:1035C0005C4980F88851897819B10021C0F89011C0
:1035D0001FE00121FAE700F247110091B0F87421D1
:1035E000B0F87211276B01235348B84711E002214C
:1035F0000091B0F87421B0F87211A76A04234F4803
:10360000B847411E012904D83168C1F88C0181F8FE
:10361000885130680CAA002180F86E8180F86F8193
:1036200032480CF0CBFC3068B14690F87C010028A1
:1036300046D00CA8002300901A4619462B480CF0DF
:103640000FFC354E3078012802D07169012088477F
:10365000D9F8000090F87D11092932D2DFE801F095
:10366000310570F2F0EFEEEDEC0080F89451CDF8FA
:1036700000A01422A7694E464FF4487300211D484C
:10368000B84700233168E7691A461B482031B8471C
:10369000626901211A4890476269012119489047DF
:1036A00062690121184890476269012117489047D3
:1036B0006269012116489047012116486269A2E318
:1036C000CBE323E200000020446973706C61794908
:1036D0006E736964655F5461736B5468726561648D
:1036E0002073746172742E2E2E0D0A001C6B002044
:1036F00060060020F8050020900B00202406002022
:103700001007002034070020580700207C07002005
:10371000A0070020C40700206C140020081000201F
:103720006C0B002058100020201000207C1000207E
:1037300040100020480B0020EC0F0020501000200B
:1037400080F89451CDF800A01422A7694E464FF49A
:1037500048730021FC48B8470023E7691A46FBA1DB
:10376000FD48B847226A0021FC4890477923E76961
:103770004C22FBA1FC48B847C023E7694C22FBA1BF
:10378000F948B847E76940F205134C22F9A1F64819
:10379000B84762690121F948904762690121F848F8
:1037A000904762690121F748904740F2462BE7694C
:1037B0007A235A46F4A1EC48B847E769C0235A4631
:1037C000F1A1E948B847E76940F205135A46EEA16E
:1037D000E548B847E76940F24B1340F21722ECA1E5
:1037E000EE48B8473068EE4A30F85C1F1182D1824B
:1037F000EC4A81881182D182EB4A41881182D182C0
:10380000EA4940890882C88262690121E4489047F8
:1038100062690121E348904762690121E2489047CB
:1038200062690121E148904762690121E0489047BF
:103830000121E04862690DE1E7E23EE22CE1DFE0D0
:10384000A7E0FFE7CDF800A01422A6694FF4487363
:103850000021BD48B047D9F8000000234F4680F84A
:103860009451E6691A46D4A1BB48B047396891F82B
:10387000DC01E0B301EB8002B946D2F8B001038865
:103880003BB1D1F8C80298B300261422B1F8C67231
:103890001BE000231A46CBA1E66932E006EB4601A5
:1038A00001EBC60102EB4101415A99420BD106EBF3
:1038B000460101EBC60100EB41010023E7691A460E
:1038C000C348B84703E0761CB6B2B742E6D8D9F889
:1038D0000000B0F8C612B14215D180F89C5190F8A2
:1038E000DC1100EB8100D0F8B001028801E025E096
:1038F0001FE0B8A10D98FCF7FFFD0023E6690D99C4
:103900001A46B348B047D9F800000023E76990F899
:10391000DC114E4600EB81001A46D0F8B011B048D9
:10392000891CB847306890F8DC11491E80F8DC111A
:103930002BE081F89C51D2F8B001D6E70023E6696C
:103940001A46A84801F5F071B04739680023E669C6
:103950001A46A54801F5FA71B04739680023E669AF
:103960001A46A24801F50771B04739680023E66995
:103970001A469F4801F52071B04739680023E6696F
:103980001A469C4801F29921B04701219A48626980
:1039900039E2CDF800A01422A6694FF44873002143
:1039A0006948B047D9F8000000231A4680F89451BE
:1039B000E66992A16848B047626901218E48904744
:1039C0006269012190489047626901218F489047C0
:1039D000626901218E489047626901218D489047B4
:1039E000626901218C489047626901218B489047A8
:1039F000626901218A48904701218A48626902E28E
:103A0000D0F880014E4620B1012825D002287DD172
:103A100036E0CDF800A01422A7694FF448730021C6
:103A20004948B847306800231A4680F89451E6693F
:103A30007DA14948B047626901217E48904762698B
:103A400001217D489047626901217C489047626965
:103A500001217B48904798E76269012175489047AA
:103A600030680023E669D0F8C812B0F8580100EBBE
:103A7000400202EBC00001EB40011A467148E2E14E
:103A8000626901216C489047306800231A46D0F8DB
:103A9000AC116D48E669D6E1CDF800A01422A76903
:103AA0004FF4487300212848B8476848009068A33D
:103AB0006A4A01210EA822F0B3FD0E9838B371694D
:103AC0000020884700279FED669B9FED678B0026AF
:103AD000384626F06AFFCDE9000107EBC70000EB8E
:103AE00007100290DDE90001B0EE491AF0EE691A04
:103AF00053EC112B26F0A8FF26F02AFF1FFA80FBBB
:103B0000304626F052FFB0EE481A01E09CE1D0E0CA
:103B1000F0EE681A53EC112B26F096FF26F018FFF2
:103B2000534980B28A6A5946904702990E9A06EB29
:103B30004111761CB6B222F81100B6F5487FD1D3F8
:103B40007F1CBFB2574595E0F8050020B1BEB5D83F
:103B5000B8C4C3FB00000000B00B0020B00F002071
:103B6000D0D5C3FB00000000F00C0020B5A5CEBBF3
:103B700000000000D6B0CEBB000000008C05002085
:103B8000B0050020D4050020D1D5C9AB000000004D
:103B9000B1B3BEB0D1D5C9AB00000000300D0020DC
:103BA000E80700200C0800203008002054080020FE
:103BB000780800209C080020BBE1D2E9D0C5CFA244
:103BC00000000000CFB5CDB3CDA8D6AA00000000FC
:103BD000100E0020C9E8B1B8B1E0BAC53D256400B7
:103BE000300E0020700D0020900D0020B00D002040
:103BF000D00D0020F00D00206C0B0020BAF4BDD0D9
:103C0000B7FECEF100000000C0080020E40800204C
:103C1000080900202C090020500900207409002008
:103C200098090020BC090020B6CCD0C5B7FECEF163
:103C300000000000E0090020040A0020280A0020FB
:103C40004C0A0020500E0020700E0020CEB3020857
:103C5000706167655F6361636865000000B80B00B1
:103C6000000000000000F43F7B14AE47E17AF43F0F
:103C70006C140020FFF42BAFCE4E012071698847F1
:103C8000FCF79AFB0746FFF729F80E980090366B71
:103C9000002140F2DF1340F21F320846B047FFF721
:103CA0002DF83846FCF78CFBAFF25C0201210EA820
:103CB00077E0C1A017F026FEC6E0D0F880014E469E
:103CC00030B1012817D002286ED00328F4D17BE050
:103CD000CDF800A01422A7694FF448730021BD4815
:103CE000B8470023E7691A46BBA1BE48B847306809
:103CF00080F8945149E64FF4D7700090F022A769FC
:103D00004FF448730021B348B847B7480090B7A3B1
:103D1000052200210DA822F083FC3068B6A102889C
:103D20000D98FCF7E9FB0023E7691A46B3480D99A3
:103D3000B84700233168E7691A46B148C231B8472D
:103D400000233168E7691A46AE48D631B8470023E8
:103D50003168E7691A46AC48DB31B8470023E769A8
:103D60001A461946A948B84762690121A8489047F0
:103D700062690121A748904762690121A6489047DE
:103D800062690121A54890473068626990F8EF00A8
:103D900008B1002100E00121A148904793A2002131
:103DA0000DA822F0E1FB4FE04FF4D7700090F02215
:103DB000A7694FF4487300218648B8473068E26A23
:103DC00090F8471197481EE04FF4D7700090F0220A
:103DD000A7694FF4487300217E48B8470023316833
:103DE000E7691A4690488631B84700233168E76989
:103DF0001A468E48A431B847626901218C48904721
:103E0000626901218B4890471EE0CDF800A0142282
:103E1000A6694FF4487300216E48B047D9F80000F6
:103E200080F89451D0F88001012802D002280BD1EB
:103E300004E000231A4680A1E66903E00023E66956
:103E40001A4681A18748B0470CAA002186480CF089
:103E5000B5F8D9F8001081F87C81D9F800004F46F8
:103E600090F8941101297FF48AAA90F87D01062820
:103E70003FF485AA0CA8002300901A4619467A48F8
:103E80000BF0EEFF226A0021784890473E681C2123
:103E900003A886F89481F036FCF7E6FFB0787279D3
:103EA00031798DE807007378327871A103A8FCF7A7
:103EB00023FB386890F8F30008280BD2DFE800F005
:103EC0000A04062D2F31333570A100E070A10AA835
:103ED000FCF712FB0AA903A8FCF721FF0023E669FF
:103EE0001A4603A96B48B047386890F8DC0140B126
:103EF000694800951023C66868A200214FF4167027
:103F0000B04767480078400724D5386890F84501E5
:103F10002D280CD26348A16B1BE063A1D7E763A1F6
:103F2000D5E764A1D3E764A1D1E764A1CFE7A0F10D
:103F30002D010F2902D26248A16B0AE0A0F13C01D9
:103F40000A2902D25F48A16B03E0462802D3A16B85
:103F50005D4888475D48817809B9407810B1A16B08
:103F60005B488847A16B5B488847386864210D230C
:103F700090F8460100EBC0004000B0FBF1F24FF6B4
:103F8000FF7000900B48052102F2E922866B40F297
:103F9000E920B047386890F85501012802D1A16B9B
:103FA0004D4888470CAA00212F480CF007F8FFF76E
:103FB000E6B900006C1400206D616C6C6F632070BA
:103FC0006167655F6361636865206661696C2E2E59
:103FD0002E0D0A00F8050020CFB5CDB3C9E8D6C331
:103FE00000000000B00B0020CEB3020849447374F7
:103FF000725F74656D70000025640000900E0020F3
:10400000B00E0020D00E0020F00E0020100F002077
:10401000700A0020940A0020B80A0020DC0A002060
:10402000480B0020EC0F0020300F0020500F002024
:10403000000B0020240B0020CAFDBEDDD5FDD4DA24
:10404000C9FDBCB62E2E2E00C9FDBCB6D2D1CDEA1C
:10405000B3C920C9E8B1B8BDABD6D8D0C2C6F4B692
:10406000AF000000900F00201C6B002024060020F1
:104070003230253032642D253032642D25303264C3
:1040800020253032643A2530326420004D6F6E00B6
:1040900054756500700F0020B41000204D53470088
:1040A00078120020D00600205765640054687572AD
:1040B00000000000467269005361740053756E0081
:1040C000C0060020B0060020A0060020340000201A
:1040D000E0060020F0060020000700200EB5C14CCD
:1040E000002702AB20683A46394680F89571384679
:1040F0000CF0DCFA02AD0023CDE90075012219466F
:1041000018460CF00DFDB8A017F0FCFB00231A4672
:104110001946BF4800950BF0A3FEBE4D002069690B
:10412000884721F013F92068DFF8ECA290F86500C9
:1041300000282DD0FCF740F98046FEF7CFFD012680
:10414000A888CDE9000600226B881146B3A016F0BE
:104150004DFF010013D0B6A017F0D4FBA888CDE91D
:10416000000600226B881146B9A016F03FFF01003F
:1041700005D0206880F86570BAA017F0C3FBFEF781
:10418000BDFD4046FCF71CF9206890F86500E0BBD7
:10419000FCF712F98046FEF7A1FD2068002140F2ED
:1041A0005723B0F866000090AE6B40F2FF3208462D
:1041B000B047FEF7A3FD4046FCF702F92268DFF89E
:1041C000C482B2F86010C8F80010012000904023AB
:1041D00002210520DAF80C60D1464632B047226849
:1041E000B2F85C10C8F800104FF4806BCDF800B046
:1041F000C023AC210120D9F80C602032B0472268DE
:10420000B2F85E10C8F8001000E009E0CDF800B088
:1042100040230120D9F80C6040F212213132B0471E
:104220002068052290F848119748436B0020984772
:104230002068696990F848610120884702AA002136
:1042400073480BF0BBFEB8460DF1080B0022CDE918
:10425000008B4FF4FA73114610460CF061FC206895
:1042600090F8950100287DD000231A461946684829
:10427000CDF800B00BF0F4FD696900208847824951
:10428000206805224B6B90F8480100219847E96CA3
:1042900000208847206890F89501012802D0022864
:1042A00068D145E0FCF788F88146FEF717FD2068E5
:1042B000002140F25723B0F866000090AF6B40F247
:1042C000FF320846B847FEF719FD4846FCF778F874
:1042D0002268DFF8B091B2F86010C9F80010012030
:1042E0000090402302210520DAF80C704632B847CE
:1042F0002268B2F85C10C9F800104FF4806000909A
:10430000C023AC210120DAF80C702032B8472268B3
:10431000B2F85E10C9F800104FF48060009040239E
:104320000120DAF80C7040F212213132B84721E056
:104330000127A888CDE9000700226B88114637A025
:1043400016F054FE010015D039A017F0DBFAA8884A
:10435000CDE9000700226B8811463DA016F046FE0D
:10436000010000E018E005D022683EA082F86580D8
:1043700017F0C8FA2068052280F8958190F8481156
:104380004148436B0020984769690120884702AA89
:1043900000211F480BF012FE206890F84801B0423F
:1043A0003FF454AF00231A4619461948CDF800B01F
:1043B0000BF056FD6969002088472068052290F8B7
:1043C00048113148436B304698472068696990F836
:1043D00048610120884702AA00210D480BF0EEFD3C
:1043E00034E7000000000020446973706C61794F6D
:1043F0007574736964655F5461736B546872656149
:10440000642073746172742E2E2E0D0A0000000059
:104410001C6B00206C140020B4100020313A2F4E89
:10442000414D455049432F6F6267322E6A706700D5
:10443000446973706C6179206F6267322E6A7067AD
:10444000206661696C2C7265733D25640D0A00005D
:10445000313A2F4E414D455049432F6F6267312EFF
:104460006A706700446973706C6179206F626731AC
:104470002E6A7067206661696C2C7265733D2564D5
:104480000D0A0000641400206006002038B50446C0
:10449000006800F58050816941F4801181612068D5
:1044A00000F5805080690090012003F0D7FD20685E
:1044B000009900F58050816138BD02680021002A12
:1044C00008DB0268120405D40268D20502D5006830
:1044D000C0F30D410846704710B50BF045FC0A4C7F
:1044E00001E01EF0B7FEA06AFFF7E7FF0028F8D151
:1044F0002068402100F58050416189024161BDE89A
:1045000010400BF041BC00003C6E02202DE9F04150
:10451000044621B14FF40060E060C000A060E06993
:104520000026002861D035462068402702683A49B5
:104530000A40D4E902131943294341F4007111439D
:10454000016020680568012003F088FD206805608F
:104550002068476020684568012003F07FFD2068DF
:104560004560206886602068C660206881694FF6D3
:104570004172114041F0800181612068856901200C
:1045800003F06CFD206885612068C6612068C569FC
:10459000012003F063FD2068C561206800F58050AC
:1045A00081691E4A11401E4A0A438261206800F553
:1045B00080508569012003F051FD206800F580508E
:1045C00085612068174900F580500160206800F57A
:1045D00080500568012003F041FD206800F58050FF
:1045E0000560A069012803D009E04FF480659BE7CE
:1045F000206800F58050C1690B4A1143C1616069B0
:104600000A4A818811640178D0F8010041EA00204B
:104610005064BDE8F08100000F8120FF233FDEF8E9
:10462000040020028020C1024000010000800240FE
:1046300010B50CA200210F4821F096FF0D480EA2E4
:104640000021001D21F090FF0A480FA20021083030
:1046500021F08AFF07480021BDE810400CA20C3071
:1046600021F082BF444D41527844736372546162B9
:104670000000000058150020444D415478447363F5
:10468000725461620000000052785F4275666600F5
:1046900054785F427566660038B5FFF7C9FF124C63
:1046A00012A3802200211548009421F0B9FF13487D
:1046B00013A380220021001D009421F0B1FF0F48B8
:1046C00041F2D07512A32A4600210830009421F04F
:1046D000A7FF0A4810A32A4600210C30009421F0BD
:1046E0009FFF002038BD00004CCB0308444D4152D1
:1046F0007844736372546162000000005815002012
:10470000444D415478447363725461620000000068
:1047100052785F427566660054785F42756666003F
:10472000102A0FD0C26AD1E9002342EA03220B8982
:10473000097B4FEA034343EA016142EA010203D1E4
:10474000C26002E0C268EEE7C2624FF0000070474C
:10475000102A0FD0826AD1E9002342EA03220B8992
:10476000097B4FEA034343EA016142EA010203D1B4
:10477000826002E08268EEE782624FF000007047DC
:1047800030B50A68102A1AD0026A104B02EA0302F6
:10479000D1E9013443EA0403D1E9034544EA0504BD
:1047A00043EA04034C69896943EA442343EA4131FB
:1047B00041EA020141F0080103D1016002E0026810
:1047C000E3E701624FF0000030BD00008101F0FF1F
:1047D00070B5B3F5804F05D06FF0704140F82210EE
:1047E000002070BD50F82230084C2340D1E900452C
:1047F00044EA05148D688E892D0245EA06458969CB
:104800002C430C431C4340F82240E9E70000F0CF62
:10481000F0B50C6850F82450194A1540D1E901232D
:10482000D1E903671A433E4332434E6932438E69EE
:104830003243CE6932430E6A32434E6A32438E6A45
:104840003243CE6A3243CE6B32430E6B32434E6BF1
:1048500032432A43082B01D142F0400240F8242081
:104860004A6BB2F5801F08D10A6832B14FF48072EA
:104870000A6104490268114301600020F0BD000094
:104880008000E0FF00011000F0B500EB82025368E9
:104890008E8903F04044D1E9003543EA05138D6861
:1048A0002D0245EA06452B430E8A0D4D05EB0656B3
:1048B00033430E7D6F0107EB066633438E69334346
:1048C000234353600268D20207D54268098A22F462
:1048D000700205EB0151114341600020F0BD000062
:1048E0000000F0FF30B5D1E901231A43D1E90334C8
:1048F00023431A434B690D681A438B691A43D1E964
:104900000734012D496A05686FF30E0505D01A4377
:1049100022430A432A43026008E0234329430B430E
:10492000416803606FF30E010A434260002030BD0E
:10493000426942EA4101416100207047F8B51446DE
:104940000546D1E9000210438A686FF01F03C96869
:1049500003EB421242EA412108430090286103F030
:10496000DFFF064609E0601C07D024B103F0D8FF42
:10497000801BA04201D90320F8BDA8698006F2D4AB
:104980000020F8BDF0B56FF00F05D1E9003405EB5C
:1049900004145B1E2E0123438C682F0306EB0424B2
:1049A0004FEA054C23430D8A8E8ACC68097E4FF06E
:1049B0007F4E07EB05450CEB06560EEB0161012A15
:1049C0000CD082683F1107EB043423432B4333435D
:1049D00002F070420B43134383600FE0C2682B4325
:1049E0000B4302F070428168134301F070422103CF
:1049F000A1F5805131431143C36081600020F0BDB7
:104A000030B50C4985B0C868496988474FF480546F
:104A10000120CDE900400220074D02900390694635
:104A2000284603F089FE00222146284603F072FF43
:104A300005B030BD3C1500200008024038B50446E2
:104A4000094D4FF0AA300090A879042360436A46CC
:104A5000002109F0CDFEA879042360436A460021B5
:104A6000401C09F0C5FE38BD646D02202DE9FC47ED
:104A7000254F89460646002500240DF1040810E064
:104A8000CDF80080798870438B084A46002109F0F0
:104A900031FD7888BDF80410B1EB900F04D1641C8F
:104AA000A4B2B879A042EBD8B879A04202D10020D4
:104AB000BDE8FC87304609F041FB20B1294613A030
:104AC000FBF70EFD16E0B9F1FF3F13D000200AE01E
:104AD0007A8806FB001093080022114609F060FE58
:104AE000BDF80400401CADF80400B879BDF804100E
:104AF0008842EDD86D1CADB2032DBDD3314609A05F
:104B0000FBF7EEFC0120D3E7646D02206572726F43
:104B10007220657261736520626C6F636B3A256405
:104B20000D0A000062616420626C6F636B20636831
:104B300065636B65643A25640D0A000038B5044668
:104B4000104D00208DF80000A879012360436A46CB
:104B5000002109F003FD9DF80000FF2801D002208C
:104B600038BDA879012360436A460021401C09F042
:104B7000F5FC9DF80000FF2801D0012038BD002081
:104B800038BD0000646D02202DE9F84F1D462E4B04
:104B900091468A469A79B0FBF2F802FB180B404620
:104BA00000F0B8F8284907464A89BA4202D20120E3
:104BB000BDE8F88F002428E05C4516D3ADB14A88E3
:104BC000A2EB0A01A94201D28EB200E0AEB207FB0D
:104BD000004108FB00404B465246009609F036F96A
:104BE0004FF0000AB144AD1B05E007FB004108FB94
:104BF000004009F0FDF930B13846FFF71FFF0120F2
:104C000000F024F8CBE7641CA4B20F498879A042D5
:104C1000D2D80D46A879A04214D1384600F034FA13
:104C2000404609F08BFA00206A89696908E031F88A
:104C30001040444502D121F8107003E0401C80B2BE
:104C40008242F4D80020B3E7646D0220F8B506462E
:104C50000021294D4FF6FF7003E06A6922F8110028
:104C6000491C6A898A42F8D80020A88104461CE0C1
:104C7000A879042360436A46002109F06FFC9DF87F
:104C80000000FF280CD1B6B1A879012360436A4621
:104C90000021401C09F062FC9DF80000FF280AD0AA
:104CA000214616A0FBF71CFC641C6989A142DFD8D1
:104CB00000206A6916E09DF802009DF8031000EBE1
:104CC00001206989814202D9696921F81040A889C7
:104CD000401CA881E8E732F810308B4201D3E8810C
:104CE00002E0401C8142F6D8E889642801D2022003
:104CF000F8BD0020F8BD0000646D022062616420F0
:104D0000626C6F636B20696E6465783A25640D0A86
:104D10000000000070B5104E104C71892268491EC9
:104D2000914200D2216000F001052946206800F080
:104D300017F8411C0AD170892168401E884207D9A2
:104D40002946206000F00CF8411C01D0206070BDA5
:104D50004FF0FF3070BD0000646D0220341500205C
:104D6000F8B50D460021401C0091040012D00C4FF4
:104D7000012626EA0400A8420AD1B879611E4843F8
:104D800004236A46002109F0E9FB0098401C04D086
:104D9000641EEED14FF0FF30F8BD601EF8BD00007C
:104DA000646D0220F8B5254E00273C46B78113E01C
:104DB0002046FFF7C3FE70B9204609F0BFF938B1AD
:104DC00021461FA0FBF78CFB2046FFF737FE02E0D1
:104DD000B089401CB081641C7089A042E8D8B189B8
:104DE0001BA0FBF77DFBB089642801D20120F8BD30
:104DF000C0EB4010642100EB4000B0FBF1F5002453
:104E0000009710E02046FFF799FE58B9B0790223C9
:104E100060436A46194609F0EBFC0098401C00907C
:104E2000A84203D0641C7089A042EBD80120FFF790
:104E30000DFF0028DBD00220F8BD0000646D0220C9
:104E400042616420626C6F636B3A25640D0A000056
:104E5000676F6F645F626C6F636B6E756D3A25642C
:104E60000D0A000038B509F093F9002823D11A4C37
:104E700004F11405606920B118A20021284621F030
:104E800073FB1A480090608914A342000021284651
:104E900021F0C6FB606970B10120FFF7D7FE60B159
:104EA00013A0FBF71DFBFFF77DFF90B116A0FBF7EA
:104EB00017FB022038BD012038BD618917A0FBF720
:104EC0000FFBA1891BA0FBF70BFBE1891EA0FBF7E1
:104ED00007FB002038BD0000646D02206E616E6427
:104EE0005F6465762E6C75740000000060CA03086C
:104EF000666F726D6174206E616E6420666C6173A2
:104F0000682E2E2E0D0A0000666F726D6174206689
:104F100061696C6564210D0A00000000746F7461A2
:104F20006C20626C6F636B206E756D3A25640D0AA0
:104F300000000000676F6F6420626C6F636B206E0F
:104F4000756D3A25640D0A0076616C696420626CA7
:104F50006F636B206E756D3A25640D0A00000000CA
:104F60000549CA89824202D24FF6FF7070474969EB
:104F700031F8100070470000646D02202DE9FF5FDA
:104F80009B4615468246002677E03E4C6088B0FB83
:104F9000F5F1A079414301988319B3FBF1F0FFF7D4
:104FA000DFFF6189814203D8012004B0BDE8F09F92
:104FB000344C6188A479B1FBF5F26243B3FBF2F79C
:104FC00002FB17326A43B2FBF1F300FB043701FB2B
:104FD0001328A1EB0800B0FBF5F084B2ABEB0600A0
:104FE000A04200D284B204FB05F91FFA89F31FFA2C
:104FF00088F15246384609F05FF9032809D11FFAB3
:1050000089F31FFA88F15246384609F055F903280A
:1050100004D004282ED068B30220C6E74B461FFAFE
:1050200088F152463846FFF7AFFDDFF858804FF061
:10503000FF3198F80600B7FBF0F0FFF717FD80B9D5
:1050400098F806000021B7FBF0F0FFF70FFD81464E
:1050500098F80600B7FBF0F009F070F8B9F1000F0E
:1050600008D098F80600B7FBF0F0FFF7E7FC012046
:10507000FFF7ECFD05FB04AA26445E4585D300201E
:1050800093E70000646D022008B5CC218DF8001074
:10509000044901236A4689794843194609F0A8FB67
:1050A00008BD0000646D02202DE9FF4F85B0154654
:1050B00000274FF0FF3B79E03F4C6088A179B0FBBF
:1050C000F5F048430699CB19B3FBF0F0FFF748FF22
:1050D00061898046414503D8012009B0BDE8F08FC1
:1050E000354948888979B0FBF5F24A43B3FBF2F4BD
:1050F00002FB143303FB05FABAFBF0F200FB12A922
:10510000A0EB090008FB012180B2B0FBF5F0029191
:105110000899ADF80400C91B8CB20391844200D3F6
:10512000044601A804FB05F600901FFA89F1C6F3B6
:105130008F034FF0FF32029809F0DCF908B102202A
:10514000CBE7BDF80400B0EB960F0FD1B3B21FFA56
:1051500089F1059A029809F07BFA38B94146C345AE
:1051600020D00846FFF790FFC346D8B11248817996
:1051700040884143A1EB0A00B0FBF5F0039980B2EF
:105180008CB2ADF80400844200D3044604FB05F65B
:105190001FFA89F13346059A0298FFF7F5FC08B12A
:1051A00003209AE7059827443044059008988742E1
:1051B00082D3002091E70000646D022008B501222F
:1051C0000849684614F064FB9DF80010112904D0CA
:1051D00005A0FBF785F9012000E000208DF8000014
:1051E000C0B208BD66006000466F6E7420436865FB
:1051F000636B206572726F723A72656164203D2044
:1052000025640D0A0000000010B5024602A1034803
:10521000FBF772F9014810BD25640000F873002007
:105220002DE9F14F0024DFF85C9286B04FF6FF7A4B
:10523000254627462646C9F800A0DFF84C822046BE
:10524000D8F814108847D8F82010002088474FF06D
:10525000FF0B20238DA24FF48C714FF4B470CDF866
:1052600000B00FF051F8D8F8141001208847D8F892
:10527000201000208847182384A2BE214FF48C7090
:10528000CDF800B00FF040F848F23040009040F206
:105290000913591FD8F838C04FF41672C820E047D8
:1052A00082A183A28348914208D10068012282A191
:1052B0001AF01AFA01000CD080A007E0C0680122A1
:1052C00086A11AF011FA010003D085A0FBF708F9B6
:1052D0006AE0DFF82C828BA34FF40072002104A84F
:1052E000CDF8008021F09CF988A34FF414720021BE
:1052F00003A8CDF8008021F093F986A33222002183
:1053000002A8CDF8008021F08BF984A3142200219B
:1053100001A8CDF8008021F083F90498A0B103988A
:1053200090B1029880B1019971B160A1FBF769FC5D
:105330007CA10298FBF7F3FC0698012808D002280C
:105340000DD0032818D111E078A0FBF7C9F82BE0A5
:105350007AA10198FBF755FC7B4E7C4F0CE07CA1B9
:105360000198FBF74EFC7D4E7D4F05E07DA1019835
:10537000FBF747FC7E4E7F4F0120009018239621BB
:105380004FF4AF70019A0EF0BFFFDDE90110FBF79B
:10539000C6FCDDE9021001221AF0CCF9020007D0A8
:1053A00075A00299FBF79CF8002007B0BDE8F08FCC
:1053B000DDE9030105AB4FF400721AF073FB0599A8
:1053C00001B1A8B14FA2002104A821F0CDF84FA24D
:1053D000002103A821F0C8F84EA2002102A821F064
:1053E000C3F84EA2002101A821F0BEF80120DCE79D
:1053F0008AB27119049814F0C5FA0598054464201E
:105400006843B0FBF7F0A04235D00021C4B2C9F820
:105410000010DFF874804FF0180BCDF800B00323B4
:10542000621ED8F870C0DC214FF4C370E047C9F8A1
:1054300000A0CDF800B00323D8F870C02246DC21CC
:105440004FF4C370E0470120009018232522D8F8BC
:1054500068C0DC214FF4D770E047C82000EB84021D
:10546000C420CDF800A040F20913D8F838C000EBF2
:105470008400591FE0474FF400710498FBF7D2FCF9
:1054800096E70000641400206C140020466F6E74D0
:105490002E666F6E206C696272617279207570641D
:1054A000617461696E67212100000000333A2F00AA
:1054B000303A2F0014740020303A000054686572AE
:1054C00065206966206E6F205344206361726420FA
:1054D0003A202564200D0A2000000000333A000025
:1054E0005468657265206966206E6F2055534220AE
:1054F0006469736B203A202564200D0A20000000A7
:1055000081E3020866745F627566000066745F6618
:10551000696C650066745F706174680066745F6EC4
:10552000616D6500464F4E542F0000006D616C6C3C
:105530006F63206661696C0D0A00000032345832D6
:10554000342E464F4E00000000AC8200806F0700F2
:1055500033325833322E464F4E000000001C8A0072
:1055600000380D0036345836342E464F4E000000B9
:105570000054970000E034004F70656E20257320C2
:1055800066696C65206661696C202564200D0A00DF
:105590002DE9F14F0024DFF8F8A288B04FF6FF7B29
:1055A000254627462646CAF800B0DFF8E89220468E
:1055B000C846D9F814108847D8F82010002088472A
:1055C000FF2000902023B4A24FF48C714FF4B470EC
:1055D0000EF09AFED8F8141001208847D8F8201051
:1055E00000208847FF2000901823ABA2BE214FF473
:1055F0008C700EF089FE48F23040009040F20913A2
:10560000591FD8F838C04FF41672C820E047AAA135
:10561000AAA2AB48914208D100680122A9A11AF0C0
:1056200063F801000CD0A8A007E0C0680122AEA179
:105630001AF05AF8010003D0ACA0FAF751FF75E058
:10564000DFF8C882B2A34FF48072002106A8CDF81B
:10565000008020F0E5FFAFA34FF40072002104A802
:10566000CDF8008020F0DCFFACA34FF414720021D1
:1056700003A8CDF8008020F0D3FFAAA33222002196
:1056800002A8CDF8008020F0CBFFA8A314220021AF
:1056900001A8CDF8008020F0C3FF0698B0B10498AF
:1056A000A0B1039890B1029880B1019971B182A123
:1056B000FBF7A7FA9FA10298FBF731FB0898012896
:1056C00008D002280DD0032818D111E09CA0FAF7C9
:1056D00007FF2BE09EA10198FBF793FA9F4EA04F86
:1056E0000CE0A0A10198FBF78CFAA14EA14F05E0B8
:1056F000A1A10198FBF785FAA24EA34F01200090CB
:10570000182396214FF4AF70019A0EF0FDFDDDE9EC
:105710000110FBF704FBDDE9021001221AF00AF880
:10572000020007D099A00299FAF7DAFE002009B02A
:10573000BDE8F08FDDE9030105AB4FF400721AF00C
:10574000B1F980460598002802D05FEA080036D0FB
:1057500083E00499095CA1F13002092A06D8069A6F
:105760004FF0000C02EB5002137809E0A1F1610246
:10577000052A09D8069A4FF0900C02EB50021378D4
:105780000CEB01110B431370049901444978A1F10A
:105790003002092A06D8069901EB50010B78134311
:1057A0000B700AE0A1F16102052A06D8069A573962
:1057B00002EB500213780B431370801C80B20599E2
:1057C0008842C6D305987119C0F34F02069814F0A9
:1057D000D9F8059805EB500564206843B0FBF7F055
:1057E000A04231D00021C4B2CAF8001018200090A5
:1057F0000323621ED9F870C0DC214FF4C370E04768
:10580000CAF800B0182000900323D9F870C02246CF
:10581000DC214FF4C370E0470120009018232522BB
:10582000D9F868C0DC214FF4D770E047C82000EBFE
:105830008402C420CDF800B040F20913D9F838C072
:1058400000EB8400591FE0474FF480710698FBF786
:10585000E9FAB8F1000F3FF46DAF2DA2002106A8C0
:1058600020F082FE2BA2002104A820F07DFE2BA2B6
:10587000002103A820F078FE2AA2002102A820F02F
:1058800073FE2AA2002101A820F06EFE01204EE73F
:10589000641400206C140020466F6E742E747874AB
:1058A000206C6962726172792075706461746169DB
:1058B0006E67212100000000333A2F00303A2F009C
:1058C00014740020303A00005468657265206966DF
:1058D000206E6F2053442063617264203A20256457
:1058E000200D0A2000000000333A00005468657261
:1058F00065206966206E6F20555342206469736B82
:10590000203A202564200D0A2000000069E30208E7
:105910006275660066745F627566000066745F6635
:10592000696C650066745F706174680066745F6EB0
:10593000616D6500464F4E545F5458542F0000006F
:105940006D616C6C6F63206661696C0D0A0000000C
:1059500032345832342E74787400000000AC820067
:10596000806F070033325833322E74787400000091
:10597000001C8A0000380D0036345836342E7478F6
:10598000740000000054970000E034004F70656E12
:105990002025732066696C65206661696C2025642A
:1059A000200D0A00002288B0012704AB11461046E2
:1059B0000AF07CFEFEA015F0A5FFDFF81894BA46A9
:1059C0004FF0000B04A8CDE900B04FF496735A468F
:1059D000594658460BF0A4F8DFF8FC83D8F80000CD
:1059E00090F86111002976D004A8002300901A468F
:1059F0001946FA480AF034FAF9A015F083FFFE4977
:105A000000252C460D73D8F8000090F85611012996
:105A100001D021B106E0F84B83F80DA002E0F64B6F
:105A20000021597390F8601111B9102180F86011AC
:105A3000DFF8C883F2A34FF4FA72002105A8CDF86D
:105A4000008020F0EDFDF1A3F34A012103A8CDF879
:105A5000008020F0E5FD0598E0B30398D0B3FAF795
:105A6000ABFC0190FDF73AF94FF0000B0BEBCB01CB
:105A700001EB0B104FF000080090D9F82820594690
:105A8000404690470099039A08EB411122F8110013
:105A900008F101001FFA80F8B8F5487FEDD30BF14B
:105AA00001001FFA80FBBBF5F07FDFD34FF4FA71E2
:105AB0000598FBF7B7F9D9F81410012088470020A2
:105AC0001FF08EFEFDF71AF90198FAF779FC4FF0F6
:105AD000000B17E300E04DE300202AE204A8CDE923
